{
  "_format": "hh-sol-artifact-1",
  "contractName": "LokalsNft",
  "sourceName": "contracts/LokalsNft.sol",
  "abi": [
    {
      "inputs": [],
      "stateMutability": "nonpayable",
      "type": "constructor"
    },
    {
      "anonymous": false,
      "inputs": [
        {
          "indexed": true,
          "internalType": "address",
          "name": "owner",
          "type": "address"
        },
        {
          "indexed": true,
          "internalType": "address",
          "name": "approved",
          "type": "address"
        },
        {
          "indexed": true,
          "internalType": "uint256",
          "name": "tokenId",
          "type": "uint256"
        }
      ],
      "name": "Approval",
      "type": "event"
    },
    {
      "anonymous": false,
      "inputs": [
        {
          "indexed": true,
          "internalType": "address",
          "name": "owner",
          "type": "address"
        },
        {
          "indexed": true,
          "internalType": "address",
          "name": "operator",
          "type": "address"
        },
        {
          "indexed": false,
          "internalType": "bool",
          "name": "approved",
          "type": "bool"
        }
      ],
      "name": "ApprovalForAll",
      "type": "event"
    },
    {
      "anonymous": false,
      "inputs": [
        {
          "indexed": false,
          "internalType": "address",
          "name": "sender",
          "type": "address"
        },
        {
          "indexed": false,
          "internalType": "uint256",
          "name": "tokenId",
          "type": "uint256"
        },
        {
          "indexed": false,
          "internalType": "string",
          "name": "nftName",
          "type": "string"
        },
        {
          "indexed": false,
          "internalType": "uint256",
          "name": "totalNFTs",
          "type": "uint256"
        },
        {
          "indexed": false,
          "internalType": "uint256",
          "name": "totalNFTsMax",
          "type": "uint256"
        }
      ],
      "name": "NewNFTMinted",
      "type": "event"
    },
    {
      "anonymous": false,
      "inputs": [
        {
          "indexed": true,
          "internalType": "address",
          "name": "from",
          "type": "address"
        },
        {
          "indexed": true,
          "internalType": "address",
          "name": "to",
          "type": "address"
        },
        {
          "indexed": true,
          "internalType": "uint256",
          "name": "tokenId",
          "type": "uint256"
        }
      ],
      "name": "Transfer",
      "type": "event"
    },
    {
      "inputs": [
        {
          "internalType": "address",
          "name": "to",
          "type": "address"
        },
        {
          "internalType": "uint256",
          "name": "tokenId",
          "type": "uint256"
        }
      ],
      "name": "approve",
      "outputs": [],
      "stateMutability": "nonpayable",
      "type": "function"
    },
    {
      "inputs": [
        {
          "internalType": "address",
          "name": "owner",
          "type": "address"
        }
      ],
      "name": "balanceOf",
      "outputs": [
        {
          "internalType": "uint256",
          "name": "",
          "type": "uint256"
        }
      ],
      "stateMutability": "view",
      "type": "function"
    },
    {
      "inputs": [
        {
          "internalType": "uint256",
          "name": "tokenId",
          "type": "uint256"
        }
      ],
      "name": "getApproved",
      "outputs": [
        {
          "internalType": "address",
          "name": "",
          "type": "address"
        }
      ],
      "stateMutability": "view",
      "type": "function"
    },
    {
      "inputs": [],
      "name": "getTotalMaxNFTs",
      "outputs": [
        {
          "internalType": "uint256",
          "name": "",
          "type": "uint256"
        }
      ],
      "stateMutability": "view",
      "type": "function"
    },
    {
      "inputs": [],
      "name": "getTotalNFTs",
      "outputs": [
        {
          "internalType": "uint256",
          "name": "",
          "type": "uint256"
        }
      ],
      "stateMutability": "view",
      "type": "function"
    },
    {
      "inputs": [
        {
          "internalType": "address",
          "name": "owner",
          "type": "address"
        },
        {
          "internalType": "address",
          "name": "operator",
          "type": "address"
        }
      ],
      "name": "isApprovedForAll",
      "outputs": [
        {
          "internalType": "bool",
          "name": "",
          "type": "bool"
        }
      ],
      "stateMutability": "view",
      "type": "function"
    },
    {
      "inputs": [],
      "name": "mintNFT",
      "outputs": [],
      "stateMutability": "nonpayable",
      "type": "function"
    },
    {
      "inputs": [],
      "name": "name",
      "outputs": [
        {
          "internalType": "string",
          "name": "",
          "type": "string"
        }
      ],
      "stateMutability": "view",
      "type": "function"
    },
    {
      "inputs": [
        {
          "internalType": "uint256",
          "name": "tokenId",
          "type": "uint256"
        }
      ],
      "name": "ownerOf",
      "outputs": [
        {
          "internalType": "address",
          "name": "",
          "type": "address"
        }
      ],
      "stateMutability": "view",
      "type": "function"
    },
    {
      "inputs": [
        {
          "internalType": "address",
          "name": "from",
          "type": "address"
        },
        {
          "internalType": "address",
          "name": "to",
          "type": "address"
        },
        {
          "internalType": "uint256",
          "name": "tokenId",
          "type": "uint256"
        }
      ],
      "name": "safeTransferFrom",
      "outputs": [],
      "stateMutability": "nonpayable",
      "type": "function"
    },
    {
      "inputs": [
        {
          "internalType": "address",
          "name": "from",
          "type": "address"
        },
        {
          "internalType": "address",
          "name": "to",
          "type": "address"
        },
        {
          "internalType": "uint256",
          "name": "tokenId",
          "type": "uint256"
        },
        {
          "internalType": "bytes",
          "name": "_data",
          "type": "bytes"
        }
      ],
      "name": "safeTransferFrom",
      "outputs": [],
      "stateMutability": "nonpayable",
      "type": "function"
    },
    {
      "inputs": [
        {
          "internalType": "address",
          "name": "operator",
          "type": "address"
        },
        {
          "internalType": "bool",
          "name": "approved",
          "type": "bool"
        }
      ],
      "name": "setApprovalForAll",
      "outputs": [],
      "stateMutability": "nonpayable",
      "type": "function"
    },
    {
      "inputs": [
        {
          "internalType": "bytes4",
          "name": "interfaceId",
          "type": "bytes4"
        }
      ],
      "name": "supportsInterface",
      "outputs": [
        {
          "internalType": "bool",
          "name": "",
          "type": "bool"
        }
      ],
      "stateMutability": "view",
      "type": "function"
    },
    {
      "inputs": [],
      "name": "symbol",
      "outputs": [
        {
          "internalType": "string",
          "name": "",
          "type": "string"
        }
      ],
      "stateMutability": "view",
      "type": "function"
    },
    {
      "inputs": [
        {
          "internalType": "uint256",
          "name": "tokenId",
          "type": "uint256"
        }
      ],
      "name": "tokenURI",
      "outputs": [
        {
          "internalType": "string",
          "name": "",
          "type": "string"
        }
      ],
      "stateMutability": "view",
      "type": "function"
    },
    {
      "inputs": [
        {
          "internalType": "address",
          "name": "from",
          "type": "address"
        },
        {
          "internalType": "address",
          "name": "to",
          "type": "address"
        },
        {
          "internalType": "uint256",
          "name": "tokenId",
          "type": "uint256"
        }
      ],
      "name": "transferFrom",
      "outputs": [],
      "stateMutability": "nonpayable",
      "type": "function"
    }
  ],
  "bytecode": "0x608060405260405180610c0001604052806040518060400160405280600681526020017f546f6d61746f000000000000000000000000000000000000000000000000000081525081526020016040518060400160405280600481526020017f417175610000000000000000000000000000000000000000000000000000000081525081526020016040518060400160405280600a81526020017f417175616d6172696e650000000000000000000000000000000000000000000081525081526020016040518060400160405280600481526020017f426c75650000000000000000000000000000000000000000000000000000000081525081526020016040518060400160405280600a81526020017f426c756556696f6c65740000000000000000000000000000000000000000000081525081526020016040518060400160405280600581526020017f42726f776e00000000000000000000000000000000000000000000000000000081525081526020016040518060400160405280600981526020017f4275726c79576f6f64000000000000000000000000000000000000000000000081525081526020016040518060400160405280600981526020017f4361646574426c7565000000000000000000000000000000000000000000000081525081526020016040518060400160405280600a81526020017f436861727472657573650000000000000000000000000000000000000000000081525081526020016040518060400160405280600981526020017f43686f636f6c617465000000000000000000000000000000000000000000000081525081526020016040518060400160405280600581526020017f436f72616c00000000000000000000000000000000000000000000000000000081525081526020016040518060400160405280600e81526020017f436f726e666c6f776572426c756500000000000000000000000000000000000081525081526020016040518060400160405280600881526020017f436f726e73696c6b00000000000000000000000000000000000000000000000081525081526020016040518060400160405280600781526020017f4372696d736f6e0000000000000000000000000000000000000000000000000081525081526020016040518060400160405280600481526020017f4379616e0000000000000000000000000000000000000000000000000000000081525081526020016040518060400160405280600881526020017f4461726b426c756500000000000000000000000000000000000000000000000081525081526020016040518060400160405280600881526020017f4461726b4379616e00000000000000000000000000000000000000000000000081525081526020016040518060400160405280600d81526020017f4461726b476f6c64656e526f640000000000000000000000000000000000000081525081526020016040518060400160405280600881526020017f4461726b4772617900000000000000000000000000000000000000000000000081525081526020016040518060400160405280600881526020017f4461726b4772657900000000000000000000000000000000000000000000000081525081526020016040518060400160405280600981526020017f4461726b477265656e000000000000000000000000000000000000000000000081525081526020016040518060400160405280600981526020017f4461726b4b68616b69000000000000000000000000000000000000000000000081525081526020016040518060400160405280600b81526020017f4461726b4d6167656e746100000000000000000000000000000000000000000081525081526020016040518060400160405280600e81526020017f4461726b4f6c697665477265656e00000000000000000000000000000000000081525081526020016040518060400160405280600a81526020017f4461726b4f72616e67650000000000000000000000000000000000000000000081525081526020016040518060400160405280600a81526020017f4461726b4f72636869640000000000000000000000000000000000000000000081525081526020016040518060400160405280600781526020017f4461726b5265640000000000000000000000000000000000000000000000000081525081526020016040518060400160405280600a81526020017f4461726b53616c6d6f6e0000000000000000000000000000000000000000000081525081526020016040518060400160405280600c81526020017f4461726b536561477265656e000000000000000000000000000000000000000081525081526020016040518060400160405280600d81526020017f4461726b536c617465426c75650000000000000000000000000000000000000081525081526020016040518060400160405280600d81526020017f4461726b536c617465477261790000000000000000000000000000000000000081525081526020016040518060400160405280600d81526020017f4461726b536c617465477265790000000000000000000000000000000000000081525081526020016040518060400160405280600d81526020017f4461726b54757271756f6973650000000000000000000000000000000000000081525081526020016040518060400160405280600a81526020017f4461726b56696f6c65740000000000000000000000000000000000000000000081525081526020016040518060400160405280600881526020017f4465657050696e6b00000000000000000000000000000000000000000000000081525081526020016040518060400160405280600b81526020017f44656570536b79426c756500000000000000000000000000000000000000000081525081526020016040518060400160405280600781526020017f44696d477261790000000000000000000000000000000000000000000000000081525081526020016040518060400160405280600781526020017f44696d477265790000000000000000000000000000000000000000000000000081525081526020016040518060400160405280600a81526020017f446f64676572426c75650000000000000000000000000000000000000000000081525081526020016040518060400160405280600981526020017f46697265427269636b000000000000000000000000000000000000000000000081525081526020016040518060400160405280600b81526020017f466c6f72616c576869746500000000000000000000000000000000000000000081525081526020016040518060400160405280600b81526020017f466f72657374477265656e00000000000000000000000000000000000000000081525081526020016040518060400160405280600781526020017f467563687369610000000000000000000000000000000000000000000000000081525081526020016040518060400160405280600981526020017f4761696e73626f726f000000000000000000000000000000000000000000000081525081526020016040518060400160405280600a81526020017f47686f737457686974650000000000000000000000000000000000000000000081525081526020016040518060400160405280600481526020017f476f6c640000000000000000000000000000000000000000000000000000000081525081526020016040518060400160405280600981526020017f476f6c64656e526f64000000000000000000000000000000000000000000000081525081526020016040518060400160405280600581526020017f477265656e00000000000000000000000000000000000000000000000000000081525081526020016040518060400160405280600b81526020017f477265656e59656c6c6f7700000000000000000000000000000000000000000081525081526020016040518060400160405280600881526020017f486f6e657944657700000000000000000000000000000000000000000000000081525081526020016040518060400160405280600781526020017f486f7450696e6b0000000000000000000000000000000000000000000000000081525081526020016040518060400160405280600981526020017f496e6469616e526564000000000000000000000000000000000000000000000081525081526020016040518060400160405280600681526020017f496e6469676f000000000000000000000000000000000000000000000000000081525081526020016040518060400160405280600581526020017f49766f727900000000000000000000000000000000000000000000000000000081525081526020016040518060400160405280600581526020017f4b68616b6900000000000000000000000000000000000000000000000000000081525081526020016040518060400160405280600c81526020017f4c656d6f6e43686966666f6e000000000000000000000000000000000000000081525081526020016040518060400160405280600481526020017f4c696d650000000000000000000000000000000000000000000000000000000081525081526020016040518060400160405280600781526020017f4d6167656e74610000000000000000000000000000000000000000000000000081525081526020016040518060400160405280600681526020017f4d61726f6f6e000000000000000000000000000000000000000000000000000081525081526020016040518060400160405280600c81526020017f4d69646e69676874426c7565000000000000000000000000000000000000000081525081526020016040518060400160405280600b81526020017f4e6176616a6f576869746500000000000000000000000000000000000000000081525081526020016040518060400160405280600481526020017f4e6176790000000000000000000000000000000000000000000000000000000081525081526020016040518060400160405280600781526020017f4f6c644c6163650000000000000000000000000000000000000000000000000081525081526020016040518060400160405280600581526020017f4f6c69766500000000000000000000000000000000000000000000000000000081525081526020016040518060400160405280600981526020017f4f6c69766544726162000000000000000000000000000000000000000000000081525081526020016040518060400160405280600681526020017f4f72616e6765000000000000000000000000000000000000000000000000000081525081526020016040518060400160405280600981526020017f4f72616e6765526564000000000000000000000000000000000000000000000081525081526020016040518060400160405280600681526020017f4f7263686964000000000000000000000000000000000000000000000000000081525081526020016040518060400160405280600481526020017f506572750000000000000000000000000000000000000000000000000000000081525081526020016040518060400160405280600481526020017f50696e6b0000000000000000000000000000000000000000000000000000000081525081526020016040518060400160405280600481526020017f506c756d0000000000000000000000000000000000000000000000000000000081525081526020016040518060400160405280600a81526020017f506f77646572426c75650000000000000000000000000000000000000000000081525081526020016040518060400160405280600681526020017f507572706c65000000000000000000000000000000000000000000000000000081525081526020016040518060400160405280600d81526020017f52656265636361507572706c650000000000000000000000000000000000000081525081526020016040518060400160405280600381526020017f526564000000000000000000000000000000000000000000000000000000000081525081526020016040518060400160405280600981526020017f526f737942726f776e000000000000000000000000000000000000000000000081525081526020016040518060400160405280600981526020017f526f79616c426c7565000000000000000000000000000000000000000000000081525081526020016040518060400160405280600b81526020017f536164646c6542726f776e00000000000000000000000000000000000000000081525081526020016040518060400160405280600681526020017f53616c6d6f6e000000000000000000000000000000000000000000000000000081525081526020016040518060400160405280600a81526020017f53616e647942726f776e0000000000000000000000000000000000000000000081525081526020016040518060400160405280600881526020017f536561477265656e00000000000000000000000000000000000000000000000081525081526020016040518060400160405280600781526020017f536b79426c75650000000000000000000000000000000000000000000000000081525081526020016040518060400160405280600981526020017f536c617465426c7565000000000000000000000000000000000000000000000081525081526020016040518060400160405280600981526020017f536c61746547726179000000000000000000000000000000000000000000000081525081526020016040518060400160405280600981526020017f536c61746547726579000000000000000000000000000000000000000000000081525081526020016040518060400160405280600481526020017f536e6f770000000000000000000000000000000000000000000000000000000081525081526020016040518060400160405280600b81526020017f537072696e67477265656e00000000000000000000000000000000000000000081525081526020016040518060400160405280600981526020017f537465656c426c7565000000000000000000000000000000000000000000000081525081526020016040518060400160405280600381526020017f54616e000000000000000000000000000000000000000000000000000000000081525081526020016040518060400160405280600481526020017f5465616c0000000000000000000000000000000000000000000000000000000081525081526020016040518060400160405280600781526020017f54686973746c650000000000000000000000000000000000000000000000000081525081526020016040518060400160405280600981526020017f54757271756f697365000000000000000000000000000000000000000000000081525081526020016040518060400160405280600681526020017f56696f6c6574000000000000000000000000000000000000000000000000000081525081526020016040518060400160405280600681526020017f59656c6c6f77000000000000000000000000000000000000000000000000000081525081526020016040518060400160405280600b81526020017f59656c6c6f77477265656e00000000000000000000000000000000000000000081525081526020016040518060400160405280600e81526020017f426c616e63686564416c6d6f6e6400000000000000000000000000000000000081525081525060089060606200164092919062001d5c565b506040518061020001604052806040518060400160405280600881526020017f61646f7261626c6500000000000000000000000000000000000000000000000081525081526020016040518060400160405280600b81526020017f616476656e7475726f757300000000000000000000000000000000000000000081525081526020016040518060400160405280600781526020017f616d617a696e670000000000000000000000000000000000000000000000000081525081526020016040518060400160405280600981526020017f616d626967756f7573000000000000000000000000000000000000000000000081525081526020016040518060400160405280600981526020017f616d626974696f7573000000000000000000000000000000000000000000000081525081526020016040518060400160405280600781526020017f616d7573696e670000000000000000000000000000000000000000000000000081525081526020016040518060400160405280600681526020017f65786f746963000000000000000000000000000000000000000000000000000081525081526020016040518060400160405280600781526020017f657863697465640000000000000000000000000000000000000000000000000081525081526020016040518060400160405280600981526020017f657863656c6c656e74000000000000000000000000000000000000000000000081525081526020016040518060400160405280600a81526020017f696e6372656469626c650000000000000000000000000000000000000000000081525081526020016040518060400160405280600881526020017f74616c656e74656400000000000000000000000000000000000000000000000081525081526020016040518060400160405280600481526020017f7761726d0000000000000000000000000000000000000000000000000000000081525081526020016040518060400160405280600881526020017f76616c7561626c6500000000000000000000000000000000000000000000000081525081526020016040518060400160405280600581526020017f6c75636b7900000000000000000000000000000000000000000000000000000081525081526020016040518060400160405280600681526020017f7374726f6e67000000000000000000000000000000000000000000000000000081525081526020016040518060400160405280600481526020017f7261726500000000000000000000000000000000000000000000000000000000815250815250600990601062001a0d92919062001dc3565b506040518060c00160405280608c815260200162005df5608c9139600a908051906020019062001a3f92919062001e2a565b506040518060400160405280601081526020017f7d202e7368697274207b2066696c6c3a00000000000000000000000000000000815250600b908051906020019062001a8d92919062001e2a565b506040518060400160405280601081526020017f7d202e70616e7473207b2066696c6c3a00000000000000000000000000000000815250600c908051906020019062001adb92919062001e2a565b506040518060400160405280601081526020017f7d202e73686f6573207b2066696c6c3a00000000000000000000000000000000815250600d908051906020019062001b2992919062001e2a565b5060405180611c800160405280611c52815260200162005e81611c529139600e908051906020019062001b5e92919062001e2a565b506040518060400160405280600d81526020017f3c2f746578743e3c2f7376673e00000000000000000000000000000000000000815250600f908051906020019062001bac92919062001e2a565b5034801562001bba57600080fd5b506040518060400160405280600981526020017f4c6f6b616c734e667400000000000000000000000000000000000000000000008152506040518060400160405280600481526020017f4c4f4b4100000000000000000000000000000000000000000000000000000000815250816000908051906020019062001c3f92919062001e2a565b50806001908051906020019062001c5892919062001e2a565b50505062001c8a6040518060600160405280602d815260200162005dc8602d913962001c9060201b620014321760201c565b62002075565b62001d308160405160240162001ca7919062001f89565b6040516020818303038152906040527f41304fac000000000000000000000000000000000000000000000000000000007bffffffffffffffffffffffffffffffffffffffffffffffffffffffff19166020820180517bffffffffffffffffffffffffffffffffffffffffffffffffffffffff838183161783525050505062001d3360201b60201c565b50565b60008151905060006a636f6e736f6c652e6c6f679050602083016000808483855afa5050505050565b82805482825590600052602060002090810192821562001db0579160200282015b8281111562001daf57825182908051906020019062001d9e92919062001e2a565b509160200191906001019062001d7d565b5b50905062001dbf919062001ebb565b5090565b82805482825590600052602060002090810192821562001e17579160200282015b8281111562001e1657825182908051906020019062001e0592919062001e2a565b509160200191906001019062001de4565b5b50905062001e26919062001ebb565b5090565b82805462001e389062001fff565b90600052602060002090601f01602090048101928262001e5c576000855562001ea8565b82601f1062001e7757805160ff191683800117855562001ea8565b8280016001018555821562001ea8579182015b8281111562001ea757825182559160200191906001019062001e8a565b5b50905062001eb7919062001ee3565b5090565b5b8082111562001edf576000818162001ed5919062001f02565b5060010162001ebc565b5090565b5b8082111562001efe57600081600090555060010162001ee4565b5090565b50805462001f109062001fff565b6000825580601f1062001f24575062001f45565b601f01602090049060005260206000209081019062001f44919062001ee3565b5b50565b600062001f558262001fad565b62001f61818562001fb8565b935062001f7381856020860162001fc9565b62001f7e8162002064565b840191505092915050565b6000602082019050818103600083015262001fa5818462001f48565b905092915050565b600081519050919050565b600082825260208201905092915050565b60005b8381101562001fe957808201518184015260208101905062001fcc565b8381111562001ff9576000848401525b50505050565b600060028204905060018216806200201857607f821691505b602082108114156200202f576200202e62002035565b5b50919050565b7f4e487b7100000000000000000000000000000000000000000000000000000000600052602260045260246000fd5b6000601f19601f8301169050919050565b613d4380620020856000396000f3fe608060405234801561001057600080fd5b50600436106101005760003560e01c80636352211e11610097578063ace35ed411610066578063ace35ed414610299578063b88d4fde146102b7578063c87b56dd146102d3578063e985e9c51461030357610100565b80636352211e146101ff57806370a082311461022f57806395d89b411461025f578063a22cb4651461027d57610100565b806314f710fe116100d357806314f710fe1461019f57806323b872dd146101a957806330bdb351146101c557806342842e0e146101e357610100565b806301ffc9a71461010557806306fdde0314610135578063081812fc14610153578063095ea7b314610183575b600080fd5b61011f600480360381019061011a9190612893565b610333565b60405161012c9190613528565b60405180910390f35b61013d610415565b60405161014a9190613543565b60405180910390f35b61016d600480360381019061016891906128e5565b6104a7565b60405161017a9190613467565b60405180910390f35b61019d60048036038101906101989190612857565b61052c565b005b6101a7610644565b005b6101c360048036038101906101be9190612751565b610d91565b005b6101cd610df1565b6040516101da919061382a565b60405180910390f35b6101fd60048036038101906101f89190612751565b610e02565b005b610219600480360381019061021491906128e5565b610e22565b6040516102269190613467565b60405180910390f35b610249600480360381019061024491906126ec565b610ed4565b604051610256919061382a565b60405180910390f35b610267610f8c565b6040516102749190613543565b60405180910390f35b6102976004803603810190610292919061281b565b61101e565b005b6102a161119f565b6040516102ae919061382a565b60405180910390f35b6102d160048036038101906102cc91906127a0565b6111ea565b005b6102ed60048036038101906102e891906128e5565b61124c565b6040516102fa9190613543565b60405180910390f35b61031d60048036038101906103189190612715565b61139e565b60405161032a9190613528565b60405180910390f35b60007f80ac58cd000000000000000000000000000000000000000000000000000000007bffffffffffffffffffffffffffffffffffffffffffffffffffffffff1916827bffffffffffffffffffffffffffffffffffffffffffffffffffffffff191614806103fe57507f5b5e139f000000000000000000000000000000000000000000000000000000007bffffffffffffffffffffffffffffffffffffffffffffffffffffffff1916827bffffffffffffffffffffffffffffffffffffffffffffffffffffffff1916145b8061040e575061040d826114cb565b5b9050919050565b60606000805461042490613ac9565b80601f016020809104026020016040519081016040528092919081815260200182805461045090613ac9565b801561049d5780601f106104725761010080835404028352916020019161049d565b820191906000526020600020905b81548152906001019060200180831161048057829003601f168201915b5050505050905090565b60006104b282611535565b6104f1576040517f08c379a00000000000000000000000000000000000000000000000000000000081526004016104e89061378a565b60405180910390fd5b6004600083815260200190815260200160002060009054906101000a900473ffffffffffffffffffffffffffffffffffffffff169050919050565b600061053782610e22565b90508073ffffffffffffffffffffffffffffffffffffffff168373ffffffffffffffffffffffffffffffffffffffff1614156105a8576040517f08c379a000000000000000000000000000000000000000000000000000000000815260040161059f906137ea565b60405180910390fd5b8073ffffffffffffffffffffffffffffffffffffffff166105c76115a1565b73ffffffffffffffffffffffffffffffffffffffff1614806105f657506105f5816105f06115a1565b61139e565b5b610635576040517f08c379a000000000000000000000000000000000000000000000000000000000815260040161062c906136ca565b60405180910390fd5b61063f83836115a9565b505050565b60006106506007611662565b905061012c8110610696576040517f08c379a000000000000000000000000000000000000000000000000000000000815260040161068d9061360a565b60405180910390fd5b60006107836008805480602002602001604051908101604052809291908181526020016000905b828210156107695783829060005260206000200180546106dc90613ac9565b80601f016020809104026020016040519081016040528092919081815260200182805461070890613ac9565b80156107555780601f1061072a57610100808354040283529160200191610755565b820191906000526020600020905b81548152906001019060200180831161073857829003601f168201915b5050505050815260200190600101906106bd565b505050508360405180602001604052806000815250611670565b905060006108636008805480602002602001604051908101604052809291908181526020016000905b828210156108585783829060005260206000200180546107cb90613ac9565b80601f01602080910402602001604051908101604052809291908181526020018280546107f790613ac9565b80156108445780601f1061081957610100808354040283529160200191610844565b820191906000526020600020905b81548152906001019060200180831161082757829003601f168201915b5050505050815260200190600101906107ac565b505050508484611670565b905060006109436008805480602002602001604051908101604052809291908181526020016000905b828210156109385783829060005260206000200180546108ab90613ac9565b80601f01602080910402602001604051908101604052809291908181526020018280546108d790613ac9565b80156109245780601f106108f957610100808354040283529160200191610924565b820191906000526020600020905b81548152906001019060200180831161090757829003601f168201915b50505050508152602001906001019061088c565b505050508584611670565b90506000610a236008805480602002602001604051908101604052809291908181526020016000905b82821015610a1857838290600052602060002001805461098b90613ac9565b80601f01602080910402602001604051908101604052809291908181526020018280546109b790613ac9565b8015610a045780601f106109d957610100808354040283529160200191610a04565b820191906000526020600020905b8154815290600101906020018083116109e757829003601f168201915b50505050508152602001906001019061096c565b505050508684611670565b90506000610b036009805480602002602001604051908101604052809291908181526020016000905b82821015610af8578382906000526020600020018054610a6b90613ac9565b80601f0160208091040260200160405190810160405280929190818152602001828054610a9790613ac9565b8015610ae45780601f10610ab957610100808354040283529160200191610ae4565b820191906000526020600020905b815481529060010190602001808311610ac757829003601f168201915b505050505081526020019060010190610a4c565b505050508784611670565b9050610b446040518060400160405280601481526020017f52616e646f6d2061646a6563746976653a20257300000000000000000000000081525082611706565b6000610b4f876117a2565b82604051602001610b61929190613380565b6040516020818303038152906040529050610bb16040518060400160405280600c81526020017f4e6674204e616d653a202573000000000000000000000000000000000000000081525082611706565b6000600a87600b88600c89600d8a600e8b604051602001610bdb9a999897969594939291906132e9565b60405160208183030381529060405290506000610c2083610bfb8461194f565b604051602001610c0c9291906133ba565b60405160208183030381529060405261194f565b9050600081604051602001610c3591906133ff565b6040516020818303038152906040529050610c866040518060400160405280602081526020017f4d696e74696e6720746f6b656e494420257320746f20616464726573732025738152508b33611b0d565b610c90338b611bac565b610ccf6040518060400160405280601381526020017f46696e616c20546f6b656e205552493a2025730000000000000000000000000081525082611706565b610cd98a82611bca565b610d176040518060400160405280601981526020017f456d6974206e6577204e4654206d696e746564206576656e7400000000000000815250611432565b7f3541431a5c3e089cd7e14e3c3797e7f75627d4ba9ccbd1695c1190e2667a495b338b868d61012c604051610d509594939291906134ce565b60405180910390a1610d626007611c3e565b610d85604051806060016040528060258152602001613ca9602591398b33611b0d565b50505050505050505050565b610da2610d9c6115a1565b82611c54565b610de1576040517f08c379a0000000000000000000000000000000000000000000000000000000008152600401610dd89061380a565b60405180910390fd5b610dec838383611d32565b505050565b6000610dfd6007611662565b905090565b610e1d838383604051806020016040528060008152506111ea565b505050565b6000806002600084815260200190815260200160002060009054906101000a900473ffffffffffffffffffffffffffffffffffffffff169050600073ffffffffffffffffffffffffffffffffffffffff168173ffffffffffffffffffffffffffffffffffffffff161415610ecb576040517f08c379a0000000000000000000000000000000000000000000000000000000008152600401610ec29061370a565b60405180910390fd5b80915050919050565b60008073ffffffffffffffffffffffffffffffffffffffff168273ffffffffffffffffffffffffffffffffffffffff161415610f45576040517f08c379a0000000000000000000000000000000000000000000000000000000008152600401610f3c906136ea565b60405180910390fd5b600360008373ffffffffffffffffffffffffffffffffffffffff1673ffffffffffffffffffffffffffffffffffffffff168152602001908152602001600020549050919050565b606060018054610f9b90613ac9565b80601f0160208091040260200160405190810160405280929190818152602001828054610fc790613ac9565b80156110145780601f10610fe957610100808354040283529160200191611014565b820191906000526020600020905b815481529060010190602001808311610ff757829003601f168201915b5050505050905090565b6110266115a1565b73ffffffffffffffffffffffffffffffffffffffff168273ffffffffffffffffffffffffffffffffffffffff161415611094576040517f08c379a000000000000000000000000000000000000000000000000000000000815260040161108b9061368a565b60405180910390fd5b80600560006110a16115a1565b73ffffffffffffffffffffffffffffffffffffffff1673ffffffffffffffffffffffffffffffffffffffff16815260200190815260200160002060008473ffffffffffffffffffffffffffffffffffffffff1673ffffffffffffffffffffffffffffffffffffffff16815260200190815260200160002060006101000a81548160ff0219169083151502179055508173ffffffffffffffffffffffffffffffffffffffff1661114e6115a1565b73ffffffffffffffffffffffffffffffffffffffff167f17307eab39ab6107e8899845ad3d59bd9653f200f220920489ca2b5937696c31836040516111939190613528565b60405180910390a35050565b60006111e26040518060400160405280601381526020017f676574546f74616c4d61784e4654733a2025730000000000000000000000000081525061012c611f8e565b61012c905090565b6111fb6111f56115a1565b83611c54565b61123a576040517f08c379a00000000000000000000000000000000000000000000000000000000081526004016112319061380a565b60405180910390fd5b6112468484848461202a565b50505050565b606061125782611535565b611296576040517f08c379a000000000000000000000000000000000000000000000000000000000815260040161128d9061376a565b60405180910390fd5b60006006600084815260200190815260200160002080546112b690613ac9565b80601f01602080910402602001604051908101604052809291908181526020018280546112e290613ac9565b801561132f5780601f106113045761010080835404028352916020019161132f565b820191906000526020600020905b81548152906001019060200180831161131257829003601f168201915b505050505090506000611340612086565b9050600081511415611356578192505050611399565b60008251111561138b5780826040516020016113739291906132c5565b60405160208183030381529060405292505050611399565b6113948461209d565b925050505b919050565b6000600560008473ffffffffffffffffffffffffffffffffffffffff1673ffffffffffffffffffffffffffffffffffffffff16815260200190815260200160002060008373ffffffffffffffffffffffffffffffffffffffff1673ffffffffffffffffffffffffffffffffffffffff16815260200190815260200160002060009054906101000a900460ff16905092915050565b6114c8816040516024016114469190613543565b6040516020818303038152906040527f41304fac000000000000000000000000000000000000000000000000000000007bffffffffffffffffffffffffffffffffffffffffffffffffffffffff19166020820180517bffffffffffffffffffffffffffffffffffffffffffffffffffffffff8381831617835250505050612144565b50565b60007f01ffc9a7000000000000000000000000000000000000000000000000000000007bffffffffffffffffffffffffffffffffffffffffffffffffffffffff1916827bffffffffffffffffffffffffffffffffffffffffffffffffffffffff1916149050919050565b60008073ffffffffffffffffffffffffffffffffffffffff166002600084815260200190815260200160002060009054906101000a900473ffffffffffffffffffffffffffffffffffffffff1673ffffffffffffffffffffffffffffffffffffffff1614159050919050565b600033905090565b816004600083815260200190815260200160002060006101000a81548173ffffffffffffffffffffffffffffffffffffffff021916908373ffffffffffffffffffffffffffffffffffffffff160217905550808273ffffffffffffffffffffffffffffffffffffffff1661161c83610e22565b73ffffffffffffffffffffffffffffffffffffffff167f8c5be1e5ebec7d5bd14f71427d1e84f3dd0314c0f7b2291e5b200ac8c7c3b92560405160405180910390a45050565b600081600001549050919050565b606060006116aa424385611683886117a2565b6040516020016116969493929190613421565b60405160208183030381529060405261216d565b90508451816116b99190613b4e565b90508481815181106116f4577f4e487b7100000000000000000000000000000000000000000000000000000000600052603260045260246000fd5b60200260200101519150509392505050565b61179e828260405160240161171c929190613565565b6040516020818303038152906040527f4b5c4277000000000000000000000000000000000000000000000000000000007bffffffffffffffffffffffffffffffffffffffffffffffffffffffff19166020820180517bffffffffffffffffffffffffffffffffffffffffffffffffffffffff8381831617835250505050612144565b5050565b606060008214156117ea576040518060400160405280600181526020017f3000000000000000000000000000000000000000000000000000000000000000815250905061194a565b600082905060005b6000821461181c57808061180590613afb565b915050600a826118159190613954565b91506117f2565b60008167ffffffffffffffff81111561185e577f4e487b7100000000000000000000000000000000000000000000000000000000600052604160045260246000fd5b6040519080825280601f01601f1916602001820160405280156118905781602001600182028036833780820191505090505b5090505b60008514611943576001826118a991906139df565b9150600a856118b89190613b4e565b60306118c491906138fe565b60f81b818381518110611900577f4e487b7100000000000000000000000000000000000000000000000000000000600052603260045260246000fd5b60200101907effffffffffffffffffffffffffffffffffffffffffffffffffffffffffffff1916908160001a905350600a8561193c9190613954565b9450611894565b8093505050505b919050565b606060008251905060008114156119785760405180602001604052806000815250915050611b08565b6000600360028361198991906138fe565b6119939190613954565b600461199f9190613985565b905060006020826119b091906138fe565b67ffffffffffffffff8111156119ef577f4e487b7100000000000000000000000000000000000000000000000000000000600052604160045260246000fd5b6040519080825280601f01601f191660200182016040528015611a215781602001600182028036833780820191505090505b5090506000604051806060016040528060408152602001613cce604091399050600181016020830160005b86811015611ac55760038101905062ffffff818a015116603f8160121c168401518060081b905060ff603f83600c1c1686015116810190508060081b905060ff603f8360061c1686015116810190508060081b905060ff603f831686015116810190508060e01b90508084526004840193505050611a4c565b506003860660018114611adf5760028114611aef57611afa565b613d3d60f01b6002830352611afa565b603d60f81b60018303525b508484525050819450505050505b919050565b611ba7838383604051602401611b25939291906135cc565b6040516020818303038152906040527fe3849f79000000000000000000000000000000000000000000000000000000007bffffffffffffffffffffffffffffffffffffffffffffffffffffffff19166020820180517bffffffffffffffffffffffffffffffffffffffffffffffffffffffff8381831617835250505050612144565b505050565b611bc68282604051806020016040528060008152506121a0565b5050565b611bd382611535565b611c12576040517f08c379a0000000000000000000000000000000000000000000000000000000008152600401611c099061372a565b60405180910390fd5b80600660008481526020019081526020016000209080519060200190611c39929190612578565b505050565b6001816000016000828254019250508190555050565b6000611c5f82611535565b611c9e576040517f08c379a0000000000000000000000000000000000000000000000000000000008152600401611c95906136aa565b60405180910390fd5b6000611ca983610e22565b90508073ffffffffffffffffffffffffffffffffffffffff168473ffffffffffffffffffffffffffffffffffffffff161480611d1857508373ffffffffffffffffffffffffffffffffffffffff16611d00846104a7565b73ffffffffffffffffffffffffffffffffffffffff16145b80611d295750611d28818561139e565b5b91505092915050565b8273ffffffffffffffffffffffffffffffffffffffff16611d5282610e22565b73ffffffffffffffffffffffffffffffffffffffff1614611da8576040517f08c379a0000000000000000000000000000000000000000000000000000000008152600401611d9f906137aa565b60405180910390fd5b600073ffffffffffffffffffffffffffffffffffffffff168273ffffffffffffffffffffffffffffffffffffffff161415611e18576040517f08c379a0000000000000000000000000000000000000000000000000000000008152600401611e0f9061366a565b60405180910390fd5b611e238383836121fb565b611e2e6000826115a9565b6001600360008573ffffffffffffffffffffffffffffffffffffffff1673ffffffffffffffffffffffffffffffffffffffff1681526020019081526020016000206000828254611e7e91906139df565b925050819055506001600360008473ffffffffffffffffffffffffffffffffffffffff1673ffffffffffffffffffffffffffffffffffffffff1681526020019081526020016000206000828254611ed591906138fe565b92505081905550816002600083815260200190815260200160002060006101000a81548173ffffffffffffffffffffffffffffffffffffffff021916908373ffffffffffffffffffffffffffffffffffffffff160217905550808273ffffffffffffffffffffffffffffffffffffffff168473ffffffffffffffffffffffffffffffffffffffff167fddf252ad1be2c89b69c2b068fc378daa952ba7f163c4a11628f55a4df523b3ef60405160405180910390a4505050565b6120268282604051602401611fa492919061359c565b6040516020818303038152906040527f9710a9d0000000000000000000000000000000000000000000000000000000007bffffffffffffffffffffffffffffffffffffffffffffffffffffffff19166020820180517bffffffffffffffffffffffffffffffffffffffffffffffffffffffff8381831617835250505050612144565b5050565b612035848484611d32565b61204184848484612200565b612080576040517f08c379a00000000000000000000000000000000000000000000000000000000081526004016120779061362a565b60405180910390fd5b50505050565b606060405180602001604052806000815250905090565b60606120a882611535565b6120e7576040517f08c379a00000000000000000000000000000000000000000000000000000000081526004016120de906137ca565b60405180910390fd5b60006120f1612086565b90506000815111612111576040518060200160405280600081525061213c565b8061211b846117a2565b60405160200161212c9291906132c5565b6040516020818303038152906040525b915050919050565b60008151905060006a636f6e736f6c652e6c6f679050602083016000808483855afa5050505050565b60008160405160200161218091906132ae565b6040516020818303038152906040528051906020012060001c9050919050565b6121aa8383612397565b6121b76000848484612200565b6121f6576040517f08c379a00000000000000000000000000000000000000000000000000000000081526004016121ed9061362a565b60405180910390fd5b505050565b505050565b60006122218473ffffffffffffffffffffffffffffffffffffffff16612565565b1561238a578373ffffffffffffffffffffffffffffffffffffffff1663150b7a0261224a6115a1565b8786866040518563ffffffff1660e01b815260040161226c9493929190613482565b602060405180830381600087803b15801561228657600080fd5b505af19250505080156122b757506040513d601f19601f820116820180604052508101906122b491906128bc565b60015b61233a573d80600081146122e7576040519150601f19603f3d011682016040523d82523d6000602084013e6122ec565b606091505b50600081511415612332576040517f08c379a00000000000000000000000000000000000000000000000000000000081526004016123299061362a565b60405180910390fd5b805181602001fd5b63150b7a0260e01b7bffffffffffffffffffffffffffffffffffffffffffffffffffffffff1916817bffffffffffffffffffffffffffffffffffffffffffffffffffffffff19161491505061238f565b600190505b949350505050565b600073ffffffffffffffffffffffffffffffffffffffff168273ffffffffffffffffffffffffffffffffffffffff161415612407576040517f08c379a00000000000000000000000000000000000000000000000000000000081526004016123fe9061374a565b60405180910390fd5b61241081611535565b15612450576040517f08c379a00000000000000000000000000000000000000000000000000000000081526004016124479061364a565b60405180910390fd5b61245c600083836121fb565b6001600360008473ffffffffffffffffffffffffffffffffffffffff1673ffffffffffffffffffffffffffffffffffffffff16815260200190815260200160002060008282546124ac91906138fe565b92505081905550816002600083815260200190815260200160002060006101000a81548173ffffffffffffffffffffffffffffffffffffffff021916908373ffffffffffffffffffffffffffffffffffffffff160217905550808273ffffffffffffffffffffffffffffffffffffffff16600073ffffffffffffffffffffffffffffffffffffffff167fddf252ad1be2c89b69c2b068fc378daa952ba7f163c4a11628f55a4df523b3ef60405160405180910390a45050565b600080823b905060008111915050919050565b82805461258490613ac9565b90600052602060002090601f0160209004810192826125a657600085556125ed565b82601f106125bf57805160ff19168380011785556125ed565b828001600101855582156125ed579182015b828111156125ec5782518255916020019190600101906125d1565b5b5090506125fa91906125fe565b5090565b5b808211156126175760008160009055506001016125ff565b5090565b600061262e61262984613876565b613845565b90508281526020810184848401111561264657600080fd5b612651848285613a87565b509392505050565b60008135905061266881613c4c565b92915050565b60008135905061267d81613c63565b92915050565b60008135905061269281613c7a565b92915050565b6000815190506126a781613c7a565b92915050565b600082601f8301126126be57600080fd5b81356126ce84826020860161261b565b91505092915050565b6000813590506126e681613c91565b92915050565b6000602082840312156126fe57600080fd5b600061270c84828501612659565b91505092915050565b6000806040838503121561272857600080fd5b600061273685828601612659565b925050602061274785828601612659565b9150509250929050565b60008060006060848603121561276657600080fd5b600061277486828701612659565b935050602061278586828701612659565b9250506040612796868287016126d7565b9150509250925092565b600080600080608085870312156127b657600080fd5b60006127c487828801612659565b94505060206127d587828801612659565b93505060406127e6878288016126d7565b925050606085013567ffffffffffffffff81111561280357600080fd5b61280f878288016126ad565b91505092959194509250565b6000806040838503121561282e57600080fd5b600061283c85828601612659565b925050602061284d8582860161266e565b9150509250929050565b6000806040838503121561286a57600080fd5b600061287885828601612659565b9250506020612889858286016126d7565b9150509250929050565b6000602082840312156128a557600080fd5b60006128b384828501612683565b91505092915050565b6000602082840312156128ce57600080fd5b60006128dc84828501612698565b91505092915050565b6000602082840312156128f757600080fd5b6000612905848285016126d7565b91505092915050565b61291781613a13565b82525050565b61292681613a25565b82525050565b6000612937826138bb565b61294181856138d1565b9350612951818560208601613a96565b61295a81613c3b565b840191505092915050565b6000612970826138c6565b61297a81856138e2565b935061298a818560208601613a96565b61299381613c3b565b840191505092915050565b60006129a9826138c6565b6129b381856138f3565b93506129c3818560208601613a96565b80840191505092915050565b600081546129dc81613ac9565b6129e681866138f3565b94506001821660008114612a015760018114612a1257612a45565b60ff19831686528186019350612a45565b612a1b856138a6565b60005b83811015612a3d57815481890152600182019150602081019050612a1e565b838801955050505b50505092915050565b6000612a5b600a836138f3565b91507f4c6f6b616c734e465420000000000000000000000000000000000000000000006000830152600a82019050919050565b6000612a9b601b836138e2565b91507f4e6f206d6f7265204e4654732063616e206265206d696e7465642e00000000006000830152602082019050919050565b6000612adb6032836138e2565b91507f4552433732313a207472616e7366657220746f206e6f6e20455243373231526560008301527f63656976657220696d706c656d656e74657200000000000000000000000000006020830152604082019050919050565b6000612b41601c836138e2565b91507f4552433732313a20746f6b656e20616c7265616479206d696e746564000000006000830152602082019050919050565b6000612b81604f836138f3565b91507f222c20226465736372697074696f6e223a20224c6f6b616c73204e465420436f60008301527f6c6c656374696f6e222c2022696d616765223a2022646174613a696d6167652f60208301527f7376672b786d6c3b6261736536342c00000000000000000000000000000000006040830152604f82019050919050565b6000612c0d6024836138e2565b91507f4552433732313a207472616e7366657220746f20746865207a65726f2061646460008301527f72657373000000000000000000000000000000000000000000000000000000006020830152604082019050919050565b6000612c736019836138e2565b91507f4552433732313a20617070726f766520746f2063616c6c6572000000000000006000830152602082019050919050565b6000612cb3602c836138e2565b91507f4552433732313a206f70657261746f7220717565727920666f72206e6f6e657860008301527f697374656e7420746f6b656e00000000000000000000000000000000000000006020830152604082019050919050565b6000612d19600d836138f3565b91507f3c2f746578743e3c2f7376673e000000000000000000000000000000000000006000830152600d82019050919050565b6000612d596038836138e2565b91507f4552433732313a20617070726f76652063616c6c6572206973206e6f74206f7760008301527f6e6572206e6f7220617070726f76656420666f7220616c6c00000000000000006020830152604082019050919050565b6000612dbf602a836138e2565b91507f4552433732313a2062616c616e636520717565727920666f7220746865207a6560008301527f726f2061646472657373000000000000000000000000000000000000000000006020830152604082019050919050565b6000612e256029836138e2565b91507f4552433732313a206f776e657220717565727920666f72206e6f6e657869737460008301527f656e7420746f6b656e00000000000000000000000000000000000000000000006020830152604082019050919050565b6000612e8b602e836138e2565b91507f45524337323155524953746f726167653a2055524920736574206f66206e6f6e60008301527f6578697374656e7420746f6b656e0000000000000000000000000000000000006020830152604082019050919050565b6000612ef16002836138f3565b91507f227d0000000000000000000000000000000000000000000000000000000000006000830152600282019050919050565b6000612f316020836138e2565b91507f4552433732313a206d696e7420746f20746865207a65726f20616464726573736000830152602082019050919050565b6000612f716031836138e2565b91507f45524337323155524953746f726167653a2055524920717565727920666f722060008301527f6e6f6e6578697374656e7420746f6b656e0000000000000000000000000000006020830152604082019050919050565b6000612fd7602c836138e2565b91507f4552433732313a20617070726f76656420717565727920666f72206e6f6e657860008301527f697374656e7420746f6b656e00000000000000000000000000000000000000006020830152604082019050919050565b600061303d6029836138e2565b91507f4552433732313a207472616e73666572206f6620746f6b656e2074686174206960008301527f73206e6f74206f776e00000000000000000000000000000000000000000000006020830152604082019050919050565b60006130a3602f836138e2565b91507f4552433732314d657461646174613a2055524920717565727920666f72206e6f60008301527f6e6578697374656e7420746f6b656e00000000000000000000000000000000006020830152604082019050919050565b6000613109600a836138f3565b91507f7b226e616d65223a2022000000000000000000000000000000000000000000006000830152600a82019050919050565b60006131496021836138e2565b91507f4552433732313a20617070726f76616c20746f2063757272656e74206f776e6560008301527f72000000000000000000000000000000000000000000000000000000000000006020830152604082019050919050565b60006131af601d836138f3565b91507f646174613a6170706c69636174696f6e2f6a736f6e3b6261736536342c0000006000830152601d82019050919050565b60006131ef6031836138e2565b91507f4552433732313a207472616e736665722063616c6c6572206973206e6f74206f60008301527f776e6572206e6f7220617070726f7665640000000000000000000000000000006020830152604082019050919050565b60006132556004836138f3565b91507f20697320000000000000000000000000000000000000000000000000000000006000830152600482019050919050565b61329181613a7d565b82525050565b6132a86132a382613a7d565b613b44565b82525050565b60006132ba828461299e565b915081905092915050565b60006132d1828561299e565b91506132dd828461299e565b91508190509392505050565b60006132f5828d6129cf565b9150613301828c61299e565b915061330d828b6129cf565b9150613319828a61299e565b915061332582896129cf565b9150613331828861299e565b915061333d82876129cf565b9150613349828661299e565b915061335582856129cf565b9150613361828461299e565b915061336c82612d0c565b91508190509b9a5050505050505050505050565b600061338b82612a4e565b9150613397828561299e565b91506133a282613248565b91506133ae828461299e565b91508190509392505050565b60006133c5826130fc565b91506133d1828561299e565b91506133dc82612b74565b91506133e8828461299e565b91506133f382612ee4565b91508190509392505050565b600061340a826131a2565b9150613416828461299e565b915081905092915050565b600061342d8287613297565b60208201915061343d8286613297565b60208201915061344d828561299e565b9150613459828461299e565b915081905095945050505050565b600060208201905061347c600083018461290e565b92915050565b6000608082019050613497600083018761290e565b6134a4602083018661290e565b6134b16040830185613288565b81810360608301526134c3818461292c565b905095945050505050565b600060a0820190506134e3600083018861290e565b6134f06020830187613288565b81810360408301526135028186612965565b90506135116060830185613288565b61351e6080830184613288565b9695505050505050565b600060208201905061353d600083018461291d565b92915050565b6000602082019050818103600083015261355d8184612965565b905092915050565b6000604082019050818103600083015261357f8185612965565b905081810360208301526135938184612965565b90509392505050565b600060408201905081810360008301526135b68185612965565b90506135c56020830184613288565b9392505050565b600060608201905081810360008301526135e68186612965565b90506135f56020830185613288565b613602604083018461290e565b949350505050565b6000602082019050818103600083015261362381612a8e565b9050919050565b6000602082019050818103600083015261364381612ace565b9050919050565b6000602082019050818103600083015261366381612b34565b9050919050565b6000602082019050818103600083015261368381612c00565b9050919050565b600060208201905081810360008301526136a381612c66565b9050919050565b600060208201905081810360008301526136c381612ca6565b9050919050565b600060208201905081810360008301526136e381612d4c565b9050919050565b6000602082019050818103600083015261370381612db2565b9050919050565b6000602082019050818103600083015261372381612e18565b9050919050565b6000602082019050818103600083015261374381612e7e565b9050919050565b6000602082019050818103600083015261376381612f24565b9050919050565b6000602082019050818103600083015261378381612f64565b9050919050565b600060208201905081810360008301526137a381612fca565b9050919050565b600060208201905081810360008301526137c381613030565b9050919050565b600060208201905081810360008301526137e381613096565b9050919050565b600060208201905081810360008301526138038161313c565b9050919050565b60006020820190508181036000830152613823816131e2565b9050919050565b600060208201905061383f6000830184613288565b92915050565b6000604051905081810181811067ffffffffffffffff8211171561386c5761386b613c0c565b5b8060405250919050565b600067ffffffffffffffff82111561389157613890613c0c565b5b601f19601f8301169050602081019050919050565b60008190508160005260206000209050919050565b600081519050919050565b600081519050919050565b600082825260208201905092915050565b600082825260208201905092915050565b600081905092915050565b600061390982613a7d565b915061391483613a7d565b9250827fffffffffffffffffffffffffffffffffffffffffffffffffffffffffffffffff0382111561394957613948613b7f565b5b828201905092915050565b600061395f82613a7d565b915061396a83613a7d565b92508261397a57613979613bae565b5b828204905092915050565b600061399082613a7d565b915061399b83613a7d565b9250817fffffffffffffffffffffffffffffffffffffffffffffffffffffffffffffffff04831182151516156139d4576139d3613b7f565b5b828202905092915050565b60006139ea82613a7d565b91506139f583613a7d565b925082821015613a0857613a07613b7f565b5b828203905092915050565b6000613a1e82613a5d565b9050919050565b60008115159050919050565b60007fffffffff0000000000000000000000000000000000000000000000000000000082169050919050565b600073ffffffffffffffffffffffffffffffffffffffff82169050919050565b6000819050919050565b82818337600083830152505050565b60005b83811015613ab4578082015181840152602081019050613a99565b83811115613ac3576000848401525b50505050565b60006002820490506001821680613ae157607f821691505b60208210811415613af557613af4613bdd565b5b50919050565b6000613b0682613a7d565b91507fffffffffffffffffffffffffffffffffffffffffffffffffffffffffffffffff821415613b3957613b38613b7f565b5b600182019050919050565b6000819050919050565b6000613b5982613a7d565b9150613b6483613a7d565b925082613b7457613b73613bae565b5b828206905092915050565b7f4e487b7100000000000000000000000000000000000000000000000000000000600052601160045260246000fd5b7f4e487b7100000000000000000000000000000000000000000000000000000000600052601260045260246000fd5b7f4e487b7100000000000000000000000000000000000000000000000000000000600052602260045260246000fd5b7f4e487b7100000000000000000000000000000000000000000000000000000000600052604160045260246000fd5b6000601f19601f8301169050919050565b613c5581613a13565b8114613c6057600080fd5b50565b613c6c81613a25565b8114613c7757600080fd5b50565b613c8381613a31565b8114613c8e57600080fd5b50565b613c9a81613a7d565b8114613ca557600080fd5b5056fe416e204e465420772f20494420257320686173206265656e206d696e74656420746f2025734142434445464748494a4b4c4d4e4f505152535455565758595a6162636465666768696a6b6c6d6e6f707172737475767778797a303132333435363738392b2fa26469706673582212204a581aa0c3e71828d9afa8bb57e85ae3731813558b391b1deeb005d1825ee97064736f6c6343000800003377316c647261626231742063746f7228293a2074686973206973206d79206669727374204e46542065766572213c7376672077696474683d2736303027206865696768743d27383030272076696577426f783d273020302031373820323933272066696c6c3d276e6f6e652720786d6c6e733d27687474703a2f2f7777772e77332e6f72672f323030302f737667273e3c7374796c653e2e736b696e207b66696c6c3a236633653238653b7d202e68616972207b66696c6c3a7d2e736d616c6c207b20666f6e743a206e6f726d616c203570782069617772697465722d6d6f6e6f2c204e697474692c204d656e6c6f2c20436f75726965722c206d6f6e6f73706163653b2066696c6c3a20233231323432423b7d202e6b6579776f7264207b20666f6e743a20626f6c64203870782069617772697465722d6d6f6e6f2c204e697474692c204d656e6c6f2c20436f75726965722c206d6f6e6f73706163653b2066696c6c3a20233231323432423b207d203c2f7374796c653e3c7061746820636c6173733d27736b696e2720643d274d34312e36313939203137332e3935354334322e36323032203137332e3435382034332e34393931203137322e3734392034342e31393438203137312e3837364334342e38393035203137312e3030332034352e33383631203136392e3938392034352e36343637203136382e3930344334352e39303732203136372e3831392034352e39323634203136362e3639312034352e37303238203136352e3539384334352e34373933203136342e3530352034352e30313834203136332e3437342034342e33353237203136322e3537384c36322e313630382037362e323536314c34352e353432382037362e303337354c33332e31373632203136312e3236354333312e373433203136322e3438312033302e38303634203136342e31382033302e35343339203136362e3033394333302e32383135203136372e3839392033302e37313134203136392e37392033312e37353232203137312e3335344333322e373933203137322e3931392033342e33373234203137342e3034382033362e31393131203137342e3532374333382e30303938203137352e3030362033392e39343134203137342e3830332034312e36313939203137332e393535563137332e3935355a272f3e3c7061746820636c6173733d27736b696e2720643d274d3132322e353634203136392e343733433132332e3338203136382e373131203132342e303139203136372e3738203132342e343336203136362e373435433132342e383533203136352e3731203132352e303337203136342e353937203132342e393737203136332e343833433132342e393136203136322e333639203132342e363131203136312e323832203132342e303834203136302e323939433132332e353537203135392e333135203132322e3832203135382e343539203132312e393236203135372e3739314c3131342e3237372036392e393837394c39382e323839362037342e353230384c3131302e383339203135392e373231433130392e383134203136312e323936203130392e343033203136332e313931203130392e363834203136352e303438433130392e393635203136362e393035203131302e393138203136382e353934203131322e333633203136392e373936433131332e383039203137302e393938203131352e363435203137312e363239203131372e353235203137312e3537433131392e343035203137312e3531203132312e313938203137302e373634203132322e353634203136392e343733563136392e3437335a272f3e3c7061746820636c6173733d27736b696e2720643d274d37312e32383139203238322e3731374c36322e35363034203238322e3731364c35382e34313136203234392e31334c37312e32383334203234392e3133314c37312e32383139203238322e3731375a272f3e3c7061746820636c6173733d2773686f65732720643d274d35362e333331203238302e3232384837332e31353038563239302e3830324834352e373430374334352e37343037203238372e3939372034362e38353635203238352e3330382034382e38343236203238332e3332354335302e38323836203238312e3334322035332e35323233203238302e3232382035362e333331203238302e323238563238302e3232385a27202f3e3c7061746820636c6173733d27736b696e2720643d274d3131302e343038203238322e3731374c3130312e363836203238322e3731364c39372e35333736203234392e31334c3131302e343039203234392e3133314c3131302e343038203238322e3731375a272f3e3c7061746820636c6173733d2773686f65732720643d274d39352e343537203238302e323238483131322e323737563239302e3830324838342e383636374338342e38363637203238372e3939372038352e39383235203238352e3330382038372e39363835203238332e3332354338392e39353436203238312e3334322039322e36343833203238302e3232382039352e343537203238302e323238563238302e3232385a272f3e3c7061746820636c6173733d27736b696e2720643d274d37332e353431362034322e373533334338332e313931332034322e373533332039312e303133392033342e393433332039312e303133392032352e333039314339312e303133392031352e3637352038332e3139313320372e38363439332037332e3534313620372e38363439334336332e3839313920372e38363439332035362e303639332031352e3637352035362e303639332032352e333039314335362e303639332033342e393433332036332e383931392034322e373533332037332e353431362034322e373533335a272f3e3c7061746820636c6173733d2770616e74732720643d274d39382e31303437203236312e3532354339372e33393336203236312e3532312039362e37303536203236312e3237332039362e31353731203236302e3832314339352e36303836203236302e33372039352e32333333203235392e3734322039352e30393438203235392e3034364c38332e323833203139382e3033324338332e31373438203139372e3437332038322e38363937203139362e3937322038322e34323239203139362e3631394338312e39373631203139362e3236352038312e34313732203139362e3038342038302e38343738203139362e3130374338302e32373833203139362e3132392037392e37333538203139362e3335352037392e33313839203139362e3734334337382e393032203139372e3133312037382e36333832203139372e3635362037382e35373534203139382e3232314c37322e39363132203235372e3635324337322e38383334203235382e3337382037322e35343732203235392e3035312037322e30313338203235392e35354337312e34383035203236302e3034382037302e37383536203236302e3333392037302e30353535203236302e3336394c35392e31333532203236302e3831394335382e373332203236302e38342035382e33323836203236302e37382035372e393439203236302e3634334335372e35363934203236302e3530352035372e32323134203236302e3239332035362e39323536203236302e3031394335362e36323735203235392e3734372035362e33383633203235392e3431392035362e32313633203235392e3035344335362e30343633203235382e3638392035352e39353037203235382e3239332035352e39333532203235372e3839314c35322e31333134203136362e3038364335322e31313038203136352e3632332035322e31393638203136352e31362035322e33383238203136342e3733354335322e35363837203136342e33312035322e38343937203136332e3933332035332e32303432203136332e3633334c35352e34303337203136312e3735394335352e39353834203136312e3238372035362e36363332203136312e3032382035372e333932203136312e303237483130382e3831433130392e363232203136312e303238203131302e343031203136312e333531203131302e393735203136312e393234433131312e353439203136322e343938203131312e383732203136332e323735203131312e383733203136342e303836563235382e303031433131312e383735203235382e373839203131312e353731203235392e353438203131312e303234203236302e313138433131302e343738203236302e363837203130392e373332203236312e303234203130382e393433203236312e3035374c39382e32333537203236312e3532324339382e31393139203236312e3532332039382e31343832203236312e3532352039382e31303437203236312e3532355a272f3e3c7061746820636c6173733d2773686972742720643d274d37312e37373135203137342e3338354336332e34353835203137342e3338352035362e31333038203137322e3137342035322e34333136203136352e3732344335322e31323232203136352e3139322035312e39373732203136342e3538312035322e30313437203136332e3936384c35362e363632382039332e303331384335362e373030352039322e343538332035362e353238392039312e383930352035362e313739382039312e343333354c34332e313337342037342e333630364334322e3839332037342e303430362034322e373134312037332e363735362034322e363131322037332e323836354334322e353038332037322e383937342034322e343833342037322e343931392034322e353337382037322e303933314334322e353932322037312e363934342034322e3732352037312e333130332034322e393238342037302e393632394334332e313331382037302e363135352034332e3430322037302e333131362034332e373233332037302e303638364c36332e323837362035352e323730344336332e363938342035342e393538372036332e393937332035342e353232392036342e313339392035342e303237394c36342e373039392035322e303336354336342e383836332035312e343136322036352e3235352035302e383637372036352e3736332035302e343639354336362e323731312035302e303731342036362e383932332034392e3834342036372e353337382034392e383230324c38312e383933392034392e323638364338322e333732362034392e323532352038322e383438362034392e333437372038332e323834312034392e353436374338332e373139372034392e373435362038342e313033312035302e303432382038342e3430342035302e343134394c38352e393331382035322e333231334338362e313236352035322e353634372038362e333637322035322e373637342038362e363430332035322e3931384c3131302e3634392036362e31363433433131312e3132332036362e34323635203131312e3531392036362e38303933203131312e3739372036372e32373337433131322e3037352036372e37333832203131322e3232342036382e32363738203131322e3233312036382e383038374c3131322e3233312036382e383531324c3131322e3232312036382e38393137433130362e3632352039322e31383935203130362e3934203132312e363337203131332e323132203136312e353637433131332e323239203136322e313736203131332e303633203136322e373736203131322e373336203136332e3239433131322e343039203136332e383034203131312e393335203136342e323039203131312e333736203136342e343533433130362e3138203136362e372038372e32363538203137342e3338352037312e37373135203137342e3338355a272f3e3c7061746820636c6173733d2773686972742720643d274d35372e313531203130312e3231344834302e383930314334302e343733203130312e3231342034302e30363031203130312e31332033392e363737203130302e3936354333392e32393338203130302e3830312033382e39343833203130302e35362033382e36363139203130302e3235374333382e333735342039392e393534322033382e3135342039392e353936322033382e303131312039392e323034394333372e383638332039382e383133372033372e383037312039382e333937342033372e383331332039372e393831364333382e303733332039332e383435372033382e353530372038352e393739392033392e303238362037392e3737374333392e373136342037302e383530352034382e343736392036362e3435372034382e353635312036362e343133324c34382e373336342036362e333239364c35342e363530392037302e303737394c36302e313535312039372e353535354336302e323433392039372e393939322036302e3233332039382e3435372036302e313233312039382e3839364336302e303133332039392e3333352035392e383037332039392e373434322035392e35313939203130302e3039344335392e32333236203130302e3434342035382e38373131203130302e3732362035382e34363134203130302e3931394335382e30353138203130312e3131332035372e36303432203130312e3231332035372e313531203130312e3231344835372e3135315a27202f3e3c7061746820636c6173733d2773686972742720643d274d3130312e3730392039392e36393832433130312e32382039392e36393535203130302e3835362039392e363033203130302e3436352039392e34323636433130302e3037342039392e323530322039392e373234382039382e3939342039392e343339322039382e363734334339392e313533352039382e333534372039382e393338332039372e393738372039382e383037322039372e353730394339382e363736322039372e3136332039382e363332332039362e373332322039382e363738342039362e333036334c3130312e3637392036382e373431384c3130372e3437372036342e353032334c3130372e3630392036342e35313639433130372e3637312036342e35323432203131332e3834372036352e32393431203131362e3631342037322e32433131382e3538352037372e31313739203132312e3539342038362e323037203132332e3231332039312e31383733433132332e3334322039312e35383735203132332e3338382039322e30313033203132332e3334372039322e34323839433132332e3330352039322e38343736203132332e3137382039332e32353333203132322e3937322039332e36323034433132322e3736362039332e39383736203132322e3438372039342e33303834203132322e3135312039342e35363237433132312e3831352039342e383137203132312e3433312039342e39393933203132312e3032312039352e303938324c3130322e3434382039392e36303836433130322e3230362039392e363638203130312e3935382039392e36393831203130312e3730392039392e363938325639392e363938325a272f3e3c7061746820636c6173733d27686169722720643d274d37332e393339362034322e383734394337372e363736352033362e393732312037332e303131322032302e373233332036322e383435322032302e323939334336302e343938312032302e323031342035392e353936372031362e373931362035382e373939312031342e353835384335382e333932392031332e3330372035382e323834392031312e393532332035382e343833352031302e363235344335382e36383220392e32393834372035392e3138313920382e30333434372035392e3934343820362e39334336312e3439373220342e37323930352036332e3633343820332e30303530322036362e3131363420312e39353234344336382e3930373920302e3637323036352037312e3934323520302e30303632303430372037352e3031343420342e3331343731652d30354337382e30383634202d302e30303631313737382038312e3132333720302e3634373537342038332e3932303320312e39313637344338362e3731363820332e31383539312038392e3230373220352e30343038342039312e3232323420372e33353536394339332e3233373620392e36373035342039342e373330352031322e333931312039352e353939372031352e333332384339362e343638382031382e323734352039362e3639342032312e333638342039362e323539392032342e343034364339352e383235382032372e343430382039342e373432362033302e333438332039332e303833382033322e393239374339312e343234392033352e353131312038392e323239332033372e3730362038362e363435392033392e333635354338342e303632342034312e303234392038312e313531372034322e313130322037382e313131322034322e353437344c37332e393339362034322e383734395a27202f3e3c706174682066696c6c3d2777686974652720643d274d36302e363633362037382e323838344c36322e363130382037382e303937344c36332e333836332038362e303034374c36372e343130342038352e36314c36372e3631312038372e3635354c36312e363339372038382e323430364c36302e363633362037382e323838345a272f3e3c706174682066696c6c3d2777686974652720643d274d38342e353438382037352e393435384c38362e363934362037352e373335344c38372e323032372038302e3931364c39312e393531362037352e323139384c39342e3630372037342e393539334c39302e3335332038302e313830334c39302e3234332038302e333031324c39342e303932322038332e353136324c3130312e3535342037342e3237384c3130332e3435382037342e303931324c3130342e3432312038332e393037324c3130322e3430392038342e313034354c3130312e3732372037372e313531354c39352e363736392038342e373634374c39322e383837352038352e303338334c38392e3232362038312e393432364c38392e303530342038312e383038344c38372e343736382038332e373130384c38372e363730362038352e363837364c38352e353234392038352e3839384c38342e353438382037352e393435385a272f3e3c706174682066696c6c3d2777686974652720643d274d37342e383031362037332e383837344337302e363734352037342e323932322036372e363634372037372e393536352036382e303639352038322e303833364336382e343734322038362e323130372037322e313338362038392e323230352037362e323635372038382e383135384338302e333932382038382e3431312038332e343031332038342e3733332038322e393937382038302e363139354338322e353933312037362e343932342037382e393238372037332e343832362037342e383031362037332e383837345a4d37362e303039352038362e373634344337332e303132392038372e303538332037302e333634332038342e383730322037302e303731372038312e383837334336392e373737382037382e383930372037312e393635392037362e3234322037342e393438382037352e393439354337372e393435342037352e363535362038302e353934312037372e383433362038302e383836362038302e383236364338312e313739322038332e383039352037382e393932352038362e343731382037362e303039352038362e373634345a272f3e3c706174682066696c6c3d2777686974652720643d274d37382e303231342038312e313037364337382e3130322038312e393239392037372e323733382038322e363838312037362e313737332038322e373935364337352e303830392038322e393033322037342e313231312038322e333230342037342e303430352038312e3439384337332e393539382038302e363735372037342e373838312037392e393137352037352e383834352037392e38314337362e393830392037392e373032342037372e393430372038302e323835332037382e303231342038312e313037365a272f3e3c7465787420783d2736352720793d2739332720636c6173733d27736d616c6c273e69733c2f746578743e3c7465787420783d2736362720793d2739392720636c6173733d276b6579776f7264273e",
  "linkReferences": {},
  "deployedLinkReferences": {}
}